:020000040800F2
:10000000D8080020DD010008DF3200088F2A000830
:10001000DD32000861080008493C000800000000CB
:10002000000000000000000000000000E3320008B3
:100030003909000800000000E1320008E53200083C
:10004000F7010008F7010008F7010008F7010008B0
:10005000F7010008F7010008F7010008F7010008A0
:10006000F7010008F7010008F7010008F701000890
:1000700065080008F701000871080008F70100088A
:100080007D08000889080008F7010008F70100084A
:10009000F7010008F7010008F7010008F701000860
:1000A000F7010008F7010008F7010008F701000850
:1000B000E5330008F7010008F7010008F701000820
:1000C000F7010008F7010008F7010008F701000830
:1000D000F7010008F7010008313C00083D3C00082A
:1000E0003B090008F7010008F7010008F7010008C4
:1000F000F7010008F7010008F7010008F701000800
:10010000F7010008F7010008F7010008F7010008EF
:10011000F7010008F7010008F7010008F7010008DF
:10012000F7010008F7010008F7010008F7010008CF
:10013000F7010008F7010008F7010008F7010008BF
:10014000F7010008F7010008F7010008F7010008AF
:10015000F7010008F7010008F7010008F70100089F
:10016000F7010008F7010008F7010008F70100088F
:10017000F7010008F7010008F7010008000000007F
:10018000F7010008F7010008F7010008F70100086F
:10019000F7010008F7010008F7010008F70100085F
:1001A000F7010008F7010008F7010008F70100084F
:1001B000F7010008F7010008F7010008F70100083F
:1001C000F7010008F7010008DFF80CD000F036FB5B
:1001D0000048004771450008D808002006488047BD
:1001E00006480047FEE7FEE7FEE7FEE7FEE7FEE71C
:1001F000FEE7FEE7FEE7FEE791330008C9010008CD
:100200002DE9F05F0546002092469B46884606464B
:10021000814640241BE0284641464746224600F0DE
:10022000B8F953465A46C01A914110D311461846A0
:10023000224600F09FF92D1A67EB01084F4622462F
:100240000120002100F096F917EB00094E41201E15
:10025000A4F10104DFDC484631462A464346BDE8A6
:10026000F09F40EA01039B0703D009E008C9121F71
:1002700008C0042AFAD203E011F8013B00F8013B60
:10028000521EF9D27047D2B201E000F8012B491E8C
:10029000FBD270470022F6E710B513460A46044623
:1002A0001946FFF7F0FF204610BD421C10F8011B55
:1002B0000029FBD1801A70472DE9FE4F804681EA64
:1002C0000300C00F0C46009021F0004123F00045D0
:1002D000B8EB0200A94105D24046214690461C4693
:1002E0000B46024623F00040104347D0270DC7F3CA
:1002F0000A00C3F30A510290401A019040286BDAB9
:10030000C3F3130040F4801B0098924620B10023F1
:10031000D2EB030A63EB0B0B01985946C0F1400284
:10032000504600F027F906460D4650465946019AB8
:1003300000F03FF910EB08006141002487EA1152F8
:1003400084EAE7731A4340D0009A62B3019A012A03
:100350004FEA075215DC001B61EB02014FF000422F
:1003600002EA0752CDE90042001C41F580113246F5
:100370002B4600F076F903B0BDE8F08F40462146E9
:10038000F9E7001B61EB0201001C41F58013001826
:100390005B412018A2F5001747EB030140EAD57036
:1003A000B6196D4111E06D084FEA360645EAC07591
:1003B0004FEA0752001B61EB0201001C41F580115E
:1003C00049084FEA30000019514132462B4603B02C
:1003D000BDE8F04F00F036B900980122400000233C
:1003E000D0EB020263EBE073009821464FEAE07421
:1003F000B8EB000061EB0401E9E783F000435BE741
:1004000081F0004158E72DE9FE4F81EA030404F032
:10041000004421F0004100944FF0000B23F0004312
:1004200050EA01045ED052EA03045BD0C3F30A54DD
:10043000C1F30A552C44A4F2F3340194A0FB0254F6
:10044000C1F3130141F48011C3F3130343F4801388
:1004500001FB024400FB034E840A970A44EA8154DC
:1004600047EA8357A4FB076802958D0A05FB0785B9
:100470004FEA932C04FB0C542705029D4FEA0658C3
:1004800047EA1637B5EB08056EEB070C870E920EA0
:1004900047EA811742EA8312A7FB0201B6EB0B0180
:1004A00064EB00042B0D43EA0C335E1844EB1C5044
:1004B000DA465146E7FB0201C5F313044FEA0B335A
:1004C00043EA14534FEA0432019C43EA0603A4F1C1
:1004D0000C040294009CCDE900B400F0C2F803B013
:1004E000BDE8F08F00200146F9E700F0004230F04F
:1004F00000400AD0C10D01F56071C0F3160042EA58
:100500000151C2084007114370470020014670475F
:1005100001F0004330B421F0004150EA010206D05E
:100520000A0DA2F56072C1F31301002A02DC30BC8F
:1005300000207047440F44EAC104C100E01830BCF9
:1005400000EBC25000F047B830B50B460146002022
:100550002022012409E021FA02F59D4205D303FA85
:1005600002F5491B04FA02F52844151EA2F1010206
:10057000F1DC30BD202A04DB203A00FA02F1002031
:1005800070479140C2F1200320FA03F319439040D1
:100590007047202A04DB203A21FA02F0002170473C
:1005A00021FA02F3D040C2F12002914008431946DB
:1005B0007047202A06DBCB17203A41FA02F043EAC3
:1005C000E07306E041FA02F3D040C2F1200291400C
:1005D0000843194670470029A8BF7047401C4900CE
:1005E00008BF20F00100704710B4B0FA80FC00FA98
:1005F0000CF050EA010404BF10BC704749B1CCF1C3
:10060000200421FA04F411FA0CF118BF012121434E
:100610000843A3EB0C01CB1D4FEA00614FEA102009
:1006200042BF002010BC704700EBC35010440029AB
:10063000A4BF10BC7047401C490008BF20F0010057
:1006400010BC704710B5141E73F1000408DA401C8A
:1006500041F1000192185B411A4301D120F00100E1
:1006600010BD2DE9F04D92469B4611B1B1FA81F2D1
:1006700002E0B0FA80F220329046FFF77BFF04469A
:100680000F4640EA0A0041EA0B0153465A46084326
:1006900013D0114653EA010019D0C8F14002504668
:1006A000FFF777FF05460E46504659464246FFF78C
:1006B00061FF084305D0012004E020463946BDE82B
:1006C000F08D0020054346EAE0762C4337430A9834
:1006D0006305E40AA0EB08000022FD0A44EA47543F
:1006E0000A3002D500200146E9E7010510196941E9
:1006F000DDE9084500196941BDE8F04DA2E72DE9A3
:10070000F04D81EA030404F0004B21F0004514464B
:100710004FF0000A23F0004150EA050220D054EACD
:1007200001021DD0C5F30A570246C5F31303C1F3F6
:100730001300C1F30A5640F4801543F48013A7EB6D
:100740000608101BD64608F2FD3873EB050002D3ED
:1007500008F1010801E092185B41B8F1000F03DADB
:1007600000200146BDE8F08D00204FF480110646C0
:1007700084460EE0171B73EB050705D3121B63EBD2
:10078000050306434CEA010C49084FEA3000921871
:100790005B4150EA0107EDD152EA030012D082EA30
:1007A000040083EA0501084305D0101BAB4106D2C3
:1007B0000122002306E000224FF0004302E06FF028
:1007C000010253101AEB06004CEB085110EB0A0023
:1007D00041EB0B01BDE8F04DFFF734BFC1F30A5206
:1007E000C1F3130140F2FF3341F480119A4202DA5F
:1007F00000200146704740F233439A42A2F233424E
:1008000002DC5242FFF7C5BEFFF7B4BE30B5041E8E
:1008100071F1000404DB4FF00044404264EB01013D
:10082000141E73F1000405DB1C464FF000435242D6
:1008300063EB0403994208BF904230BD064C074D5C
:1008400006E0E06840F0010394E8070098471034A0
:10085000AC42F6D3FFF7BCFCD04A0008F04A0008CF
:10086000FEE70000014800F08FB8000018040020E7
:10087000014800F089B8000078040020014800F029
:1008800083B8000058030020014800F07DB8000044
:10089000B803002001681823CAB2103AB2FBF3F281
:1008A000054B6FF30901032A9B5CC36500D9091D41
:1008B0008165084670470000B04A000810B583699A
:1008C0004FF0C074826A0146002053B1B3F5005F57
:1008D00015D072B1012A0CD0022A0AD0032A09D1FC
:1008E00004E01AB1012A06D0022A03D1C96AC9015B
:1008F00000D5012010BDC96AA142FAD010BD002A5E
:10090000F7D0012AF2D0022AF3D0032AF3D010BD87
:1009100030B50468256825F4802525600468636087
:100920008368402B036803D099600068C26030BDC3
:100930009A600068C16030BD70474FF4806010B5A8
:1009400000F01EFA4FF4805000F01AFA4FF4804085
:1009500000F016FABDE810404FF4004000F010BA65
:10096000704790F83510022903D08021416501209D
:100970007047052180F835100068016821F00101F9
:1009800001600020704700002DE9F84304464FF055
:100990000009644B0820CDF800904FF41652A56D65
:1009A00094F85C101B682E68B3FBF2F700FA01F1B3
:1009B00031420FD021680A6852070BD50A6822F02D
:1009C00004020A6094F85C108840A860606D40F0F2
:1009D0000100606594F85C104FF0010808FA01F01E
:1009E000304208D021684969090604D5A860606DC5
:1009F00040F00200606594F85C10042088403042AA
:100A000008D021680968890704D5A860606D40F0A6
:100A10000400606594F85C1010208840304218D0C3
:100A200021680968090714D5A8602068016849038E
:100A300004D50068000308D5A16C07E00168C9056A
:100A400003D4016821F008010160216C09B120463E
:100A5000884794F85C1020208840304231D02168CB
:100A60000968C9062DD5A86094F8350005282068C6
:100A7000016806D0490347D5006800031DD4616CA6
:100A80001CE021F0160101602068416921F080011D
:100A90004161206C08B9A06C20B12068016821F088
:100AA0000801016094F85C303F229A40AA6084F803
:100AB000349084F83580216D1FE0E16B09B1204648
:100AC0008847606D00282BD0606DC00714D00520CA
:100AD00084F835002068016821F001010160009868
:100AE000401C0090B84203D820680068C007F6D1C7
:100AF00084F8349084F83580E16C002910D001B07E
:100B00002046BDE8F04308470168C905D5D403680D
:100B100023F01003036084F8349084F83580CCE728
:100B2000BDE8F883900000202DE9F047044600F06E
:100B300031FA054664B14FF0000984F8349002217F
:100B400084F835102068016821F0010101600EE091
:100B50000120BDE8F08700BF00F01CFA401B05280B
:100B600005D920216165032084F83500F1E720686C
:100B70000068C007F0D1D4E90020D4E90251D4E9DB
:100B8000043C284304F1180519430843116895E80B
:100B9000E00140EA0C001C4B2843194040EA0600E3
:100BA00040EA0700B8F1040F40EA010003D1D4E99C
:100BB0000B1319430843106020680126656A4069D9
:100BC000042D20F0070045EA00050CD1D4E90A0104
:100BD000054341B12046FFF771FE20B1402060651A
:100BE00084F83560B4E7206845612046FFF752FE7F
:100BF00094F85C303F229A408260C4F8549084F8A4
:100C000035600020A5E700003F8010F02DE9F0419D
:100C1000044690F8340000250128A66D0ED094F803
:100C200035C00127002084F83470BCF1010F07D0D3
:100C3000022584F834002846BDE8F0810220FBE755
:100C4000022784F8357060652046FFF761FE94F84E
:100C50005C103F208840B0602068016841F01601B8
:100C600001602068416941F080014161206C20B140
:100C70002068016841F0080101602068016841F0C6
:100C800001010160D7E7000070B5044600F082F969
:100C90000546601C02D004480078044400F07AF94C
:100CA000401BA042FAD370BD840000202DE9F04122
:100CB0004FF48067304C314DBE00B84215D13946F3
:100CC000284600F055F93946284600F051F9074604
:100CD0003146284600F04CF9874202D02068401C7B
:100CE00001E02068401E206043E0B0420FD1314651
:100CF000284600F03DF93946284600F039F9074604
:100D00003146284600F034F98742EAD1E6E74FF44D
:100D100080477E00B84214D13946284600F028F9B1
:100D20003946284600F024F907463146284600F0A7
:100D30001FF98742606802D0401C606019E0401EC5
:100D4000FBE7B04215D13146284600F011F939468B
:100D5000284600F00DF907463146284600F008F90C
:100D60008742606803D1401C6060BDE8F081401E8E
:100D7000FAE700BFF9E700001C0000200010024065
:100D8000044910B50A68024202D00860FFF78EFFDE
:100D900010BD0000143C01402DE9F84FDFF89CE144
:100DA00000224FF001084FF0030B4FF00F0A00BF75
:100DB0000B6808FA02F42340A34271D14D68022D5A
:100DC00001D0122D0FD1D5080E69570700EB85050C
:100DD000A9462D6AFF0E0AFA07FCBE4025EA0C055B
:100DE0002E43C9F820600F79550006680BFA05FC00
:100DF00007F0030726EA0C06AF40374307604E684A
:100E0000012E05D0022E03D0112E01D0122E0ED1AC
:100E10008668CF6826EA0C06AF403743876046688D
:100E20000F79A643C7F30017974037434760C4685C
:100E30008E6824EA0C04AE402643C6604C68E40089
:100E400075D53F4C256845F480452560246822F01F
:100E50000306950704F4804400943A4C2D0F264471
:100E6000D6F80848DFF8E0C00AFA05F7604524EA3A
:100E7000070401D100272EE0344FB84201D10127E9
:100E800029E0334FB84201D1022724E0314FB84264
:100E900001D103271FE0304FB84202D104271AE0E6
:100EA00045E02E4FB84201D1052714E02C4FB8423F
:100EB00001D106270FE02B4FB84201D107270AE0E6
:100EC000294FB84201D1082705E0284FB84201D187
:100ED000092700E00A27AF4027437546C6F808787F
:100EE0004E68DEF80040F60324EA030400D51C43F4
:100EF000124E2C60361D4D683468AD0324EA03049D
:100F000000D51C430D4F346008374D683C68ED0236
:100F100024EA030400D51C43084D3C600C354E68A0
:100F20002C68B60224EA030400D51C432C60521C32
:100F3000102AFFF43DAFBDE8F88F0000003C0140EF
:100F400044380240003001400000024000040240EA
:100F500000080240000C0240001002400014024051
:100F600000180240001C0240002002400024024001
:100F70000069084000D001207047426931EA02024E
:100F800000D10904816170470AB181617047090489
:100F9000FBE70000014880687047000084000020E3
:100FA00030B590F84120202A24D190F84020012A21
:100FB00020D0012380F84030242280F841202023D3
:100FC00000240268156825F001051560026815689F
:100FD00025F480551560026815680D431560016899
:100FE0000A6842F001020A6080F8413080F840400F
:100FF000002030BD022030BD30B590F84120202ABD
:1010000022D190F84020012A1ED0012380F84030E0
:10101000242280F84120202400250268136823F050
:10102000010313600268136823F4706343EA01212B
:10103000116001680A6842F001020A6080F84140CC
:1010400080F84050002030BD022030BD70B5040053
:1010500004D094F84100002510B106E0012070BDD5
:10106000204684F8405000F071F9242084F84100B3
:101070002068016821F001010160D4E9001020F02E
:10108000706008612068816821F400418160E06837
:1010900021680128A06806D040F404408860E06818
:1010A000022803D006E040F40040F7E721684FF43F
:1010B0000060486020212068114A43681343436060
:1010C0002068C26822F40042C26054F8106B0DCC54
:1010D000104340EA0320F06054F81C3CD4E90002BD
:1010E0001043186054F81C0D026842F001020260BF
:1010F000656484F84110256384F84250002070BD77
:10110000008000022DE9F84F044690F841001F4688
:101110009046DDF828A08B4620287ED194F8400028
:1011200001287AD0012084F84000FFF733FF012224
:10113000064619230090D103204601F02FFDE0BBA5
:101140000025222184F84110102084F842006564B3
:101150006785618DFF2732484FF00079C4F82480FD
:10116000FF294FF08078656303D927853A460090C0
:1011700039E0618D218500903AE05946204601F022
:10118000F7FC13E001F038FDB8B92068616A406AE5
:101190000870606A401C6062208D401E81B221850B
:1011A000608D401E6085608D00B169B1608D3246F2
:1011B000514600282046E5D100E002E001F060FD44
:1011C000D0B10120BDE8F88F00225346802120468F
:1011D000009601F0E3FC0028F3D1608DFF2804D9CC
:1011E00027853A4600954346C7E7608D20850095E0
:1011F0004B4694F82820C0E720682021094AC161A5
:10120000206843681340436084F8411084F84250DA
:10121000002084F84050D5E7FFE70220D2E7000025
:101220000024008000E800FE2DE9F84F044690F805
:1012300041001F469046DDF828A08B4620287ED12D
:1012400094F8400001287AD0012084F84000FFF78C
:10125000A1FE0122064619230090D103204601F089
:101260009DFCE0BB0025212184F84110102084F86A
:10127000420065646785618DFF2732484FF0007931
:10128000C4F82480FF294FF08078656303D927854F
:101290003A46009039E0618D218500903AE0594648
:1012A000204601F065FC13E001F011FDB8B9606A59
:1012B000216800788862606A401C6062608D401E10
:1012C0006085208D401E80B22085618D01B168B19E
:1012D000608D3246514600282046E5D100E002E00C
:1012E00001F0CEFCD0B10120BDE8F88F00225346BA
:1012F00080212046009601F051FC0028F3D1608D3A
:10130000FF2804D927853A4600954346C7E7608DF4
:10131000208500954B4694F82820C0E720682021BE
:10132000094AC161206843681340436084F8411052
:1013300084F84250002084F84050D5E7FFE70220AF
:10134000D2E700000020008000E800FE10B586B063
:10135000044614216846FEF79DFF12492068884222
:101360001ED11148016841F002010160006812219C
:10137000012200F002000590032304244FF4406092
:101380008DE81F0009486946FFF706FD0648103042
:10139000016841F480010160006800F4800005905C
:1013A00006B010BD00580040303802400004024032
:1013B00002488168027811448160704784000020EF
:1013C000032010B500F06EF8002000F005F800F0E2
:1013D00023F8002010BD000070B50D4D04464FF4F9
:1013E0007A700C4A29781268B0FBF1F0B2FBF0F089
:1013F00000F0AAFD48B9102C07D200222146501E49
:1014000000F030F800206C6070BD012070BD00005D
:1014100084000020900000200A4808B5016841F0CF
:1014200080510160006800F0805000900548001D68
:10143000016841F480410160006800F48040009040
:1014400008BD000040380240002809DB410900F0D7
:101450001F028900012001F1E0219040C1F8000144
:10146000704700000E4BF0B41B680D46C3F3022317
:10147000C3F10706042E00D90426191D072901D23D
:10148000002300E0DB1E012404FA06F19C40491E03
:101490002940641E994014402143F0BC02F0EABB8D
:1014A0000CED00E0064900F0070210B54FF6FF040E
:1014B0000868044B204040EA02201843086010BD31
:1014C0000CED00E00000FA051848F8B5016841F09D
:1014D000805101600068164C00F080500090206838
:1014E00040F480302060FFF755FD4FF47A760546D2
:1014F00005E000BFFFF74EFD401BB0420FD860680B
:10150000C003F7D5206840F400302060FFF742FDAB
:10151000054606E0FFF73EFD401BB04201D903201F
:10152000F8BD60688003F5D50020F8BD4038024062
:10153000007000400248016841F48071016070470A
:10154000007000402DE9F84F04460078DFF824943D
:101550004FF000063746C0070ED0D9F8001021F42E
:101560000001C9F80010D9F80010626B1143C9F8E6
:101570000010606B00B90126FE4D20688435000321
:101580000ED5E16B286820F4401008432860E06B1A
:10159000B0F5801F01D010B102E0012600E0012764
:1015A00020684FF4800BC0020CD5216C286820F411
:1015B000400008432860206C584501D1012601E015
:1015C00000B901272068C10100D50126800666D533
:1015D000E8483830016841F0805101600068DFF868
:1015E00098A300F080500090DAF8001041F4807168
:1015F000CAF80010FFF7CEFC804605E0FFF7CAFCF2
:10160000A0EB080064287DD8DAF80000C005F5D505
:10161000DFF8608308F16808D8F8000010F4407023
:101620002AD0218E01F44071814225D0D8F80010D3
:10163000D8F8002021F4407142F48032C8F800202C
:10164000D8F8002022F48032C8F80020C8F8001032
:10165000D8F80000C0070FD0FFF79CFC824607E0D7
:10166000FFF798FCA0EB0A0141F288308142CAD80A
:10167000D8F800008007F3D5206BC0F301210329BF
:101680007ED0D9F8001021F4F811C9F80010228E8C
:10169000D8F80010C2F30B021143C8F800102078EC
:1016A000C00607D5286820F0807028602868A16BE4
:1016B000084328602188AF488830490405D5626E08
:1016C000016821F44031114301602188090405D5E6
:1016D000A26E016821F44021114301602168C90311
:1016E00005D5E26E016821F44011114301602168C3
:1016F000890305D5226F016821F44001114301607F
:10170000217800E018E1490605D5626C016821F0F6
:101710000301114301602178090605D5A26C016817
:1017200021F00C01114301602188C90505D5E26C47
:10173000016821F03001114301602188890505D538
:10174000226D016821F0C001114301602188490523
:1017500005D5626D016821F4407111430160218853
:10176000090505D5A26D016821F4406111430160AE
:101770002188C90407D5E26D016821F4405100E0D9
:1017800041E0114301602188890405D5226E01687A
:1017900021F44041114301602168490205D5A26F3F
:1017A000016821F080611143016021684FF0006AF7
:1017B000890209D5E26F016821F0006111430160DF
:1017C000E16F514500D1012721680A0700D50127A3
:1017D000490305D5626F016821F040711143016032
:1017E0002168090206D5D4F88020016821F08051D3
:1017F00011430160DFF88491012E0ED02068B0F112
:10180000007F0AD08FE05E4AD9F80030104023F400
:10181000F8120243C9F8002039E7D9F800004E4613
:1018200020F08060C9F80000FFF7B4FB804605E0B7
:10183000FFF7B0FBA0EB080064287DD830680001FA
:10184000F6D421784B487C30C90712D0616B81B93E
:10185000237A62680168D0F800C09201C1F30141A7
:1018600042EA0142CCF3036142EA016141EA0371B9
:10187000016021680A0303D5E26BB2F5801F04D032
:10188000C9021AD5216C594517D16368016894F8CB
:101890000CC002689B01C1F3014143EA0141C2F35C
:1018A000027241EA0C6141EA027101602968626AD0
:1018B00021F01F01521E114329602168C90110D572
:1018C000238A62680168D0F800C09201C1F3036105
:1018D00042EA034242EA0162CCF3027142EA017138
:1018E0000160216889010CD56168228A237B94F804
:1018F00008C0890141EA024141EA036141EA0C71F1
:1019000001603168B04641F080613160FFF742FB11
:10191000064604E0FFF73EFB801B64280CD8D8F88D
:1019200000000001F6D56FB3D9F800004E4620F054
:101930008050C9F8000000E079E0FFF72BFB074674
:1019400005E000BFFFF726FBC01B64286FD8306896
:10195000C0438000F6D50748216880300A0301D5CE
:10196000E26B1AB1C90225D5216C19BB6369016804
:10197000277E08E00838024000700040003802402E
:10198000FFFCFF0F5AE00268C1F301419B0143EAEB
:101990000143C2F3027143EA076242EA0171016046
:1019A00029686FF0FF03A26A21F4F85103EB0222C9
:1019B000114329602168890212D5E16F51450FD189
:1019C000238C6269016807689201C1F3036142EAEE
:1019D000034242EA0162C7F3027142EA0171016007
:1019E0002178090716D561690268D0F800C08B011B
:1019F000277FC2F30362CCF3014143EA014141EA8C
:101A0000026141EA077101602868E16A20F4403010
:101A100008432860306840F080503060FFF7BAFA21
:101A2000044607E0FFF7B6FA001B642802D903203A
:101A3000BDE8F88F3068C0438000F3D40020F7E79A
:101A40002DE9F04705000F4663D0444E306800F0A2
:101A50000F00B84209D2306820F00F0038433060E0
:101A6000306800F00F00B84253D128683C4C810721
:101A700012D5400703D5206840F4E0502060287854
:101A8000000703D5206840F460402060A968206802
:101A900020F0F000084320602878C0072AD03049A1
:101AA00068680839012810D00968022810D0890711
:101AB00000292EDA216821F0030101432160FFF79C
:101AC00069FA804641F288390DE009688903EFE739
:101AD0008901EDE7FFF75EFAA0EB0801494502D95D
:101AE0000320BDE8F0876868216801F00C01B1EBC4
:101AF000800FEFD1306800F00F00B8420BD930688A
:101B000020F00F0038433060306800F00F00B8421A
:101B100001D00120E5E72878400705D5E96820686D
:101B200020F4E050084320602878000706D5286993
:101B3000216821F4604141EAC000206000F036F8DD
:101B40002168084AC1F30311515CC8400649086086
:101B50000020FFF741FC0020C3E70000003C0240EA
:101B600008380240B84A000890000020044905489F
:101B700009680068044AC1F38221515CC84070477B
:101B80000838024090000020C84A0008044905486F
:101B900009680068044AC1F34231515CC84070478B
:101BA0000838024090000020C84A0008154910B5C6
:101BB0001548096811F00C0213D01449042A0FD0FB
:101BC000082A0ED10F4C241F2268236802F03F021E
:101BD0005B0207D52068C0F38810A0FB010106E076
:101BE000084610BD2168C1F38811A1FB0001002344
:101BF000FEF706FB2168C1F30141491C4900B0FB17
:101C0000F1F010BD083802400024F40040787D0156
:101C10002DE9F84F05004FF000076ED02878DFF867
:101C20001C93A9F1040AC007AAF104044CD0D9F806
:101C300000104846C1F38101012908D00068C0F3B3
:101C4000810002280AD1DAF80000400206D5206897
:101C5000800339D568680028DFD035E06868B0F5C2
:101C6000803F0BD010B1B0F5A02F11D0206820F428
:101C700080302060206820F4802002E0206840F45A
:101C800080302060686890B1FFF784F906460AE06A
:101C9000206840F480202060F0E700BFFFF77AF969
:101CA000801B642872D820688003F7D50CE0FFF70A
:101CB00071F9064605E000BFFFF76CF9801B642848
:101CC000F0D820688003F7D42878800742D5D9F867
:101CD0000010484611F00C0F08D00068C0F38100D6
:101CE00002280BD1DAF80000400207D420688007F0
:101CF00018D5E868012800D114E01CE1E868002844
:101D0000206817D040F001002060FFF743F9064635
:101D100005E000BFFFF73EF9801B0228C2D820680B
:101D20008007F7D52869216821F0F80141EAC00051
:101D300020600FE020F001002060FFF72BF906463D
:101D400005E000BFFFF726F9801B02281ED8206897
:101D50008007F7D42878000729D5784869696C305E
:101D600000298046016812D041F001010160FFF7AF
:101D700011F9064605E000BFFFF70CF9801B0228A9
:101D800004D8D8F800008007F6D510E089E021F0EB
:101D900001010160FFF7FEF8064604E0FFF7FAF8DC
:101DA000801B02287DD8D8F800008007F6D4287858
:101DB00040076BD5DFF8848108F13808D8F80000B7
:101DC000C0000BD4D8F8001041F08051C8F80010C2
:101DD000D8F80000012700F08050009058480168B2
:101DE000C90512D40168834641F480710160FFF790
:101DF000D1F8064605E000BFFFF7CCF8801B642849
:101E00004FD8DBF80000C005F6D54C4EA868683600
:101E100001280AD008B1052811D0306820F001004F
:101E20003060306820F0040002E0306840F00100CB
:101E30003060A868A0B1FFF7ADF883460CE03068C9
:101E400040F004003060F0E7FFF7A4F8A0EB0B01CE
:101E500041F28830814266D830688007F4D50EE0C0
:101E6000FFF798F8834607E0FFF794F8A0EB0B0123
:101E700041F28830814256D830688007F4D42FB1BF
:101E8000D8F8001021F08051C8F80010A869C8B334
:101E9000D9F80010C1F3810102294CD00228206832
:101EA00000E040E020F08070206003D0FFF772F87F
:101EB00005463BE0FFF76EF8064604E0FFF76AF8D8
:101EC000801B02282FD820688001F7D4D5E9096249
:101ED000D5E907011B4B570895F82C20084303EB65
:101EE000074343EA8611084340EA026040F000508D
:101EF000CAF80000206840F080702060FFF74AF8C0
:101F0000054606E015E000BFFFF744F8401B022835
:101F100009D820688001F7D50BE000BFFFF73AF839
:101F2000401B022802D90320BDE8F88F20688001F9
:101F3000F4D40020F8E70120F6E70000083802405A
:101F4000007000400000FFFF401EB0F1807F10B520
:101F500001D3012010BD4FF0E02460610F21601714
:101F600001F088FE0020A0610721216110BD7047AB
:101F7000704770472DE9F04390F83C20012A42D089
:101F8000012280F83C2051F80C4BDFF880804FF0A4
:101F9000000991E8680051E9022723F44073B1F881
:101FA0000CC03B43CF6923F480631343026823F4DE
:101FB0000063234323F4805343EA050323F40053CF
:101FC00043EA060323F4804343EA07030C3923F46E
:101FD0007023424543EA0C4302D00D4CA2420CD17F
:101FE0008D8C23F47006D1E9073446EA055121F0BF
:101FF0008071194321F000732343536480F83C90AF
:102000000020BDE8F0830220FBE700000000014053
:102010000004014070B590F83C20012A24D0134CF4
:10202000012580F83C50022280F83D200268536868
:10203000A242966802D00E4CA24203D14C6823F40F
:10204000700323430C6823F0700389681C435460B9
:10205000002326F0800602683143916080F83D50ED
:1020600080F83C30184670BD022070BD0000014071
:102070000004014010B5040003D094F83D0010B1F5
:1020800007E0012010BD002084F83C00204600F04D
:102090000DF8022084F83D002068211D01F0A8F908
:1020A000012084F83D00002010BD000008B5016843
:1020B0001648814208D11648016841F001010160CB
:1020C000006800F001000DE01248B1F1804F0BD024
:1020D000114A914207D1016841F004010160006892
:1020E00000F00400009008BD016841F001010160AA
:1020F00000680022114600F0010000901C20FFF74C
:10210000B1F9BDE808401C20FFF79EB9000001406E
:102110004438024040380240000800400168094A43
:10212000CB6843F00103CB60016888681040062843
:1021300006D0B0F5803F03D0086840F00100086089
:10214000002070470700010070B5044690F83C007D
:10215000012817D0324B012584F83C50022084F826
:102160003D0022689068184020F47F409060086825
:10217000502830D00DDC20284DD005DC98B3102835
:102180003BD148E0022070BD302844D0402834D1F3
:1021900039E0602828D0702806D0B0F5805F2CD0B8
:1021A000B0F5005F29D10AE04A682068D1E902133E
:1021B00001F091F92068816841F0770109E04A68EF
:1021C0002068D1E9021301F086F92068816841F4A2
:1021D0008041816011E0CA684968206801F0C2FA54
:1021E0002068502107E016E0CA684968206801F0BD
:1021F000CAFA2068602101F077F9002084F83D5088
:1022000084F83C0070BDCA684968206801F0AAFAE9
:1022100020684021EFE7226801461046EBE7000006
:1022200088FFFEFF704770B504460068002501690D
:10223000C943890715D4C168C943890711D4EA1E67
:10224000026101212177206880698007204602D041
:10225000FFF7E8FF04E000F0EBF8204600F099F902
:10226000257720680169C943490717D4C168C94364
:10227000490713D402216FF004020261217720681C
:10228000806910F4407F204602D0FFF7CBFF04E0C6
:1022900000F0CEF8204600F07CF92577206801692F
:1022A000C943090716D4C168C943090712D40421D8
:1022B0006FF00802026121772068C069800720461C
:1022C00002D0FFF7AFFF04E000F0B2F8204600F0C4
:1022D00060F9257720680169C943C90617D4C16828
:1022E000C943C90613D408216FF010020261217797
:1022F0002068C06910F4407F204602D0FFF792FFAB
:1023000004E000F095F8204600F043F925772068B6
:102310000169C943C90708D1C168C943C90704D1C4
:10232000891E0161204600F05BF920680169C943FC
:10233000090609D4C168C943090605D46FF08001B4
:1023400001612046FFF714FE20680169C943C905F1
:1023500009D4C168C943090605D46FF480710161CD
:102360002046FFF704FE20680169C943490609D4E5
:10237000C168C943490605D46FF040010161204698
:1023800000F03AF920680169C94389060BD4C16895
:10239000C943890607D46FF0200101612046BDE8DA
:1023A0007040FFF7E6BD70BD10B586B0044614213D
:1023B0006846FDF76FFF194A0020236818499342C9
:1023C0004FF0020212D10B6843F010030B60096852
:1023D000012301F0100105914FF420610091CDE936
:1023E0000120CDE903030F48694613E00E4CA342D8
:1023F00012D10B6843F008030B60096801F0080173
:1024000005914FF440410091CDE90120CDE903024F
:1024100006486946FEF7C0FC06B010BD000001404A
:10242000303802400010024000080040000C02401A
:10243000704770B5044690F83C000D4601280ED058
:10244000012684F83C60022084F83D000C2A45D027
:1024500007DC5AB1042A1BD0082A78D12CE00220CC
:1024600070BD102A4ED0142A71D15DE0206801F0B1
:1024700043F82068816941F0080181612068816921
:1024800021F00401816120682A698169114311E00A
:10249000206801F06BF82068816941F40061816176
:1024A0002068816921F480618161206829698269DD
:1024B00042EA012181614AE0206801F093F8206836
:1024C000C16941F00801C1612068C16921F00401BE
:1024D000C16120682A69C169114311E0206801F0D7
:1024E000BDF82068C16941F40061C1612068C1691B
:1024F00021F48061C16120682969C26942EA012131
:10250000C16124E0206801F0D5F82068416D41F0F8
:10251000080141652068416D21F004014165206892
:102520002A69416D114311E0206801F0EFF820683D
:10253000416D41F4006141652068416D21F4806185
:10254000416520682969426D42EA01214165002008
:1025500084F83D6084F83C0070BD10B5040003D0E1
:1025600094F83D0010B107E0012010BD002084F870
:102570003C00204600F00CF8022084F83D00206862
:10258000211D00F035FF012084F83D00002010BD22
:102590007047704710B501220446006800F08EFFB6
:1025A0000C492068884202D00B49884203D1416C13
:1025B00041F4004141642068084A816811400629BD
:1025C00006D0B1F5803F03D0016841F00101016000
:1025D000002010BD00000140000401400700010080
:1025E0000068B0F1804F03D102488168491C8160C6
:1025F000704700001C000020704770472DE9F04133
:10260000026804460025D0691168936810F00F0F26
:102610005BD003F0010601F49077374369D0C70718
:1026200007D0CF0505D501271762E26F42F00102FE
:10263000E267820708D5DA0706D0276802223A62E5
:10264000E26F42F00402E267420708D5DA0706D0DB
:10265000236804221A62E26F42F00202E267020774
:102660000AD501F02002324306D0236808221A62FC
:10267000E26F42F00802E267E26F002A32D0800681
:1026800005D5880603D5216E09B120468847216803
:10269000E06F8968490601D4000725D5204601F07E
:1026A00055F920688168490619D5816821F04001F3
:1026B0008160E06E98B11A490165E06EFEF751F94C
:1026C00000280FD0E06E016D06E0830611D58B0661
:1026D0000FD5216E12E02046BDE8F04108472046A4
:1026E000FFF78BFFBDE8F0812046FFF786FFE56727
:1026F000F8E7030605D50B0603D5616E0029EAD17C
:10270000F0E74006EED54806ECD5136820212046B8
:1027100023F0400313606167656600F0B7F9E1E7F5
:10272000AF38000810B5040002D0606F10B107E0A8
:10273000012010BD002084F87000204600F026F82B
:10274000242060672068016821F0010101602046B3
:1027500001F014F90128ECD0606A10B1204601F0B4
:1027600024F82068416821F4904141602068816824
:1027700021F02A0181602068016841F001010160B7
:102780002046BDE8104001F074B800002DE9F04F7C
:1027900087B0064614216846FDF77CFD59480223A0
:1027A000DFF864810321D6F800C01038554F0722A6
:1027B00000244FF0400B9D06C4454FF4806A4BD176
:1027C000D7F800C04CF4003CC7F800C03F6807F4DD
:1027D00000370597076847F001070760006800F0B9
:1027E000010005900C20CDE903128DE8190047483F
:1027F0006946FEF7D1FA464FA946464AD0463846C2
:102800003A60C7E90154C7E9034A7C61BC61FC61D5
:102810003C627C62FEF788F908B1FEF7A1F83E4DF4
:10282000F766BE6328463B4BC5E903486C61183325
:10283000AC61EC612C626C6285E8080AFEF774F901
:1028400008B1FEF78DF80022B56626201146AE636A
:10285000FEF708FE262050E0DFF8C080C4454ED1C8
:10286000D7F800C04CF4802CC7F800C03F6807F4CC
:1028700080270597076847F008070760006800F0A1
:1028800008000590CDE903124FF4407069468DE8C9
:1028900019002348FEF780FA224FA8461D4AD14668
:1028A0003846603A3A60C7E90154C7E9034A7C6197
:1028B000BC61FC613C627C62FEF736F908B1FEF750
:1028C0004FF8194DF766BE632846124BC5E9034918
:1028D0006C61303BAC61EC612C626C6285E808098C
:1028E000FEF722F908B1FEF73BF80022B566272073
:1028F0001146AE63FEF7B6FD2720FEF7A5FD07B033
:10290000BDE8F08F40380240004400400000024023
:102910005803002088600240B803002000480040AF
:10292000000C0240180400207804002070B5044612
:10293000806F20283FD149B342B394F8700001283A
:1029400039D0E06E012684F870600025616522238D
:10295000A4F85820E567A367D0B118491346C163AE
:10296000E16E17480864E16E1648C864E06E0565BC
:10297000666D2168E06E32462431FEF747F938B1C2
:102980001021E167202084F870506067012070BD3D
:1029900084F870502068016841F4807101602068FB
:1029A000816841F0010181602068816841F0400147
:1029B0008160002070BD022070BD00000939000850
:1029C00043390008C33800080149012008617047F5
:1029D0001C00002070472DE9F8430446406F1F4655
:1029E00016460D4620284FD1CDB1C6B194F87000DF
:1029F000012849D0012284F8702021214FF00008DD
:102A0000C4F87C806167FEF7C5FA8146A068A4F827
:102A10005060A4F85260B0F5805F03D004E001205C
:102A2000BDE8F883206910B12E46002510E000268D
:102A30000EE08021204601F0CBF8B8B9C6B116F8F7
:102A4000010B21688862B4F85200401EA4F85200BD
:102A5000B4F852004B464FF0000200970028E8D12E
:102A60004FF04001204601F0B3F838B10320D7E71A
:102A700035F8020B2168C0F30800E3E72021616705
:102A8000002084F87080CBE70220C9E77047FEE79A
:102A900001688A69D243920701D400228A620068E1
:102AA0008169C943C90703D0816941F0010181618E
:102AB000704700002DE9F0410446006890460E463C
:102AC0008069C043C00635D400252027206880696E
:102AD000C043800616D5701CF8D0FEF75BFAA0EB59
:102AE0000800B04201D8002EF0D1606C84F840504C
:102AF00040F02000606484F8417084F84250012066
:102B0000BDE8F08121681020C8612068C7612046B7
:102B1000FFF7BEFF2068084942680A404260606CC7
:102B200040F00400606484F8417084F8425084F8F6
:102B30004050E4E70020E3E700E800FE7CB5D02643
:102B40000D460A2114468DF804000123074801AA06
:102B500000913146FEF768FB64200090034823464D
:102B60002A463146FEF7CEFA7CBD000094000020D4
:102B700070B50068C1F30901074E41EA0241049CA7
:102B80004FF480654268194305EA54553543AA431A
:102B900021430A43426070BDFF63FF032DE9F0410A
:102BA0001D4617460E460446DDF8188008E0681CEE
:102BB00006D0FEF7EFF9A0EB0800A8420BD855B1FC
:102BC0002068806936EA000013D00020B842EED0B9
:102BD0000020BDE8F081626C002084F840002021D4
:102BE00042F02002626484F8411084F8420001201F
:102BF000EFE70120EAE700002DE9F04100259046CB
:102C000020260F46044626E0424639462046FFF776
:102C100051FF80BB20688069C043800614D42068BF
:102C20008169C943490701D4218DC9B91349C661D6
:102C3000206842680A404260656484F8416084F814
:102C4000425084F8405016E0FEF7A4F9A0EB0800CB
:102C5000B84208D83FB120688069C0434007D3D448
:102C60000020BDE8F081606C84F8405040F0200006
:102C7000606484F841600120F3E7000000E800FE92
:102C800070B516460D4604460DE0324629462046EC
:102C9000FFF710FF08B1012070BDFEF77BF9801B24
:102CA000A84207D835B120688069C0438006ECD4BB
:102CB000002070BD626C002084F84000202142F0AA
:102CC0002002626484F8411084F84200E3E770B5A2
:102CD00016460D4604460FE0324629462046FFF7C9
:102CE000E9FE08B1012070BD681C05D0FEF752F95D
:102CF000801BA84207D835B120688069C04380078F
:102D0000EAD4002070BD626C002084F840002021CD
:102D100042F02002626484F8411084F84200E1E746
:102D20001CB5642202238DF8040004488DF80510B8
:102D3000D021009201AAFEF777FA1CBD9400002072
:102D400070B5802104466B20FFF7EAFF6420FDF791
:102D50009BFF21794022207802EA811100F00700D0
:102D600001436B20FFF7DCFF6420FDF78DFFE07867
:102D700000F007011A20FFF7D3FF6078182505EA55
:102D8000C0011B20FFF7CCFFA07805EAC0011C2082
:102D9000FFF7C6FF042000F00BF9A17816489FED5D
:102DA000150A31B1012907D0022908D003290AD117
:102DB00012E080ED030A06E0DFED100A01E0DFED2E
:102DC000100AC0ED030A617849B101290AD002292D
:102DD0000BD003290DD10AE0DFED0A0AF1E79FEDE0
:102DE0000A0A04E09FED090A01E09FED090A80ED5F
:102DF000040A70BD00007A3D000000200000FA3D8A
:102E000000007A3E0000FA3E0000FA3B00007A3CE7
:102E10000000FA3C3EB50446684600F063F80D48F1
:102E20009DED000AD0ED000A30EE600A84ED000A44
:102E3000D0ED010A9DED010A30EE600A84ED010A31
:102E4000D0ED020A9DED020A30EE600A84ED020A1E
:102E50003EBD00000000002010B586B004460122EF
:102E60003A200DF10101FFF769FE9DF801000028ED
:102E700034D006223B2001A9FFF760FE9DF8041024
:102E800006229DF8050000EB012020809DF8061029
:102E90009DF8070000EB012060809DF808109DF868
:102EA000090000EB0120A080432003A9FFF746FEA4
:102EB0000B489DF80C209DF80D1001EB02210180BC
:102EC0009DF80E209DF80F1001EB022141809DF826
:102ED00010209DF8111001EB0221818006B010BD79
:102EE000140000201CB504466846FFF7B5FFBDF985
:102EF0000000104900EE900A91ED030AF8EEE00A96
:102F000060EE800AC4ED000ABDF9020000EE900AEE
:102F1000F8EEE00A60EE800AC4ED010ABDF9040093
:102F200000EE900AF8EEE00A20EE800A84ED020A34
:102F30001CBD00000000002003490A8802804A8866
:102F40004280898881807047140000200CB50346B8
:102F50006846FFF7F1FFBDF90000104900EE900A46
:102F600091ED040AF8EEE00A60EE800AC3ED000A73
:102F7000BDF9020000EE900AF8EEE00A60EE800A69
:102F8000C3ED010ABDF9040000EE900AF8EEE00A74
:102F900020EE800A83ED020A0CBD00000000002034
:102FA0004C2201460148FDF75CB900009400002066
:102FB00001461920FFF7B4BE2DE9F04186B0142177
:102FC0006846FDF767F93348016841F00401016084
:102FD000016801F004010591016841F08001016080
:102FE000016801F080010591016841F00101016073
:102FF000016801F001010591016841F002010160E1
:10300000016801F002010591016841F010010160C1
:10301000016801F010010591016841F008010160AB
:10302000006800221C4FD02100F0080005903846AF
:10303000FDF7AAFFDFF8648044F221060022314642
:103040004046FDF7A1FF002469460125D0200090ED
:10305000CDE9015438460394FDF79EFE009669467B
:10306000CDE9015440460394FDF796FE0C494FF418
:1030700054408DE813000B486946FDF78DFE002291
:1030800028201146FEF7EEF92820FEF7DDF906B0FC
:10309000BDE8F081303802400000024000040240E8
:1030A00000003110001002400E48002110B50C4CF9
:1030B00001230D4A0460C0E90121C0E903314161E7
:1030C0008161C1610162FDF7C1FF06480021FDF782
:1030D00067FFBDE8104003480021FDF78DBF0000E9
:1030E00000580040000100206847402010B59AB009
:1030F00000241C21009412A80194029403940494C7
:1031000005940694FDF7C6F82C2107A8FDF7C2F830
:1031100024484FF6FF71224AC0E90024C0E9024169
:10312000046144618461FEF7A5FF4FF48050009074
:103130001C486946FFF708F81A48FFF70EFA1948C5
:1031400004A9049405940694FEF764FF6020149487
:10315000CDE912041348002212A91594169417946D
:103160001894FFF766F90F48042212A9FFF761F9D6
:103170004FF4005007940894099401030A94CDE990
:103180000B40CDE90E41074807A90D941094119406
:10319000FEF7F0FE0348FFF707F91AB010BD000074
:1031A000000001404C01002010B588B011480024F7
:1031B0004DF2EF224FF080410094272301940294B6
:1031C000039404940594069480E81600C0E903343F
:1031D0008461FEF74FFF4FF4805000900548694628
:1031E000FEF7B2FF034804A904940694FEF712FF09
:1031F00008B010BD8C01002010B58EB000241C2139
:10320000009407A8019402940394049405940694EE
:10321000FDF740F818484FF6FF71164AC0E9002440
:10322000C0E9024104618461FEF724FF4FF480503D
:10323000009011486946FEF787FF0F48FFF78DF9A8
:103240000D4804A904940694FEF7E4FE6020CDE93D
:1032500007040948082207A909940B94FFF7E9F825
:1032600005480C2207A9FFF7E4F80348FFF79CF88C
:103270000EB010BD00080040CC0100200A4800211B
:1032800030B4084C0C224FF416530460C0E90131ED
:10329000C160C0E904128161C1610162416230BC58
:1032A000FFF740BA004400400C0200200A48002109
:1032B00030B4084C0C224FF416530460C0E90131BD
:1032C000C160C0E904128161C1610162416230BC28
:1032D000FFF728BA004800408C020020FEE7704744
:1032E00070477047FEF764B830B5B3B0302121A8FD
:1032F000FCF7D0FF14212DA8FCF7CCFF84216846F1
:10330000FCF7C8FFFEF716F91F48016841F080512D
:103310000160006800F0805032901C48016841F460
:1033200040410160006800240DF1A40C00F440400D
:1033300032900225219510210822D823CDE9275467
:103340008CE82C0001202C95CDE9240121A8FEF762
:103350005FFCFEF7B9F8EA022F944FF4A0510F205A
:10336000CDE93012CDE92D0507212DA8FEF768FB28
:1033700048F28010129413941A9400906846FEF755
:10338000E1F833B030BD000040380240007000402A
:10339000104A30B51048146800210F4B44F47004F3
:1033A0001460083305680D4A0D4C45F001050560B1
:1033B00019600368051D1340074A03600C322C6036
:1033C0000568E305034C25F480250560803C116009
:1033D000236030BD88ED00E000380240FFFFF6FEBC
:1033E000103000240148FEF71EBF00008C010020B1
:1033F000F0B5274B4FF0804E264D02689842264E7E
:10340000264F274C09D0704507D0A84205D0B042BE
:1034100003D0B84201D0A04205D1D1F804C022F0B7
:1034200070024CEA020298421BD0704519D0A842A3
:1034300017D0B04215D0B84213D0A04211D0194DC8
:10344000A8420ED0184DA8420BD0184DA84208D063
:10345000174DA84205D0174DA84202D0164DA842DC
:1034600003D1CD6822F440722A434D6922F08002D4
:103470002A43026098428A68C2620A68826201D066
:10348000A04201D10969016301214161F0BD000041
:10349000000001400004004000080040000C004013
:1034A0000004014000400140004401400048014048
:1034B00000180040001C00400020004010B5046AC5
:1034C000012301F01F018B409C4304628A40016A82
:1034D0001143016210BD42EA032283680A4323F4C8
:1034E0007F410A4382607047826822F070020A437B
:1034F00042F0070181607047F0B5026ADFF860C0F2
:10350000184F22F00102DFF860E00262066A4268AA
:10351000836926F002060D68B8428C6803EA0C0342
:1035200023F0030344EA060445EA030501D070458D
:1035300005D1CB6824F00804234323F00404B842E7
:1035400001D0704505D122F44076D1E905323343EC
:103550001A4342608561496841630462F0BD00001E
:103560008FFFFEFF0000014000040140F0B5026A39
:10357000194E1A4C22F01002DFF864E00262056A6C
:103580004368826925F02005D1F808C0A0420F6881
:1035900002EA060222F4407245EA0C1542EA0722CA
:1035A00001D0704506D1CE6825F0800545EA0615A4
:1035B00025F04005A04201D0704507D1D1E905466C
:1035C00023F4406343EA840343EA86034360826151
:1035D000496881630562F0BDFF8FFFFE0000014076
:1035E00000040140F0B5026A194F1A4E22F48072AD
:1035F000DFF864E00262056A4368C26925F4007579
:10360000D1F808C0B0420C6802EA070222F00302B7
:1036100045EA0C2544EA020401D0704506D1CF6882
:1036200025F4006242EA072222F48065B04201D00C
:10363000704507D123F44052D1E9053642EA03121E
:1036400042EA06134360C4614968C1630562F0BD84
:103650008FFFFEFF0000014000040140F0B5026A48
:10366000124B114F22F4805298420262046A42685F
:10367000C36924F400548E680D6803EA070323F439
:10368000407344EA063443EA052302D0084DA842B9
:1036900004D14D6922F4804242EA85124260C3613E
:1036A000496801640462F0BDFF8FFFFE0000014025
:1036B00000040140F0B5026ADFF844C022F4803211
:1036C0000262056A4268446D25F400350E89604542
:1036D0000C4F0B6804EA070445EA064543EA040375
:1036E00002D0094CA04204D14C6922F4803242EA53
:1036F000042242604365496881650562F0BD0000AF
:10370000000001408FFFFEFF00040140F0B5026A97
:10371000DFF844C022F480120262046A4268436DFA
:1037200024F400140E8960450C4F0D6803EA07036A
:1037300044EA065443EA052302D0094DA84204D1C5
:103740004D6922F4802242EA85224260436549683D
:10375000C1650462F0BD000000000140FF8FFFFE64
:103760000004014010B5036A046A23F00A0324F040
:103770000104046284690B4324F0F00141EA021160
:103780008161036210BD10B5036A23F01003036268
:103790008369046A23F4704324F0A00443EA0232EC
:1037A000826144EA0111016210BD90F82410C9073A
:1037B00006D00168836A4A6822F400321A434A60DC
:1037C00090F82410890706D50168C36A4A6822F474
:1037D00080321A434A6090F82410490706D50168E0
:1037E000036B4A6822F480221A434A6090F824103E
:1037F000090706D50168436B4A6822F400421A4360
:103800004A6090F82410C90606D50168836B8A685F
:1038100022F480521A438A6090F82410890606D553
:103820000168C36B8A6822F400521A438A6090F8D8
:103830002410490611D50168036C4A6822F48012ED
:103840001A434A60016CB1F5801F06D10168436CD0
:103850004A6822F4C0021A434A6090F8241009060C
:1038600006D50168826C486820F400201043486047
:10387000704738B500250446C567FDF78BFB034646
:103880002068006800070BD56FF07E400090002292
:1038900020464FF4001100F09BF908B1032038BD19
:1038A0002020606784F87050A067002038BD10B5F4
:1038B000806B0021A0F85A10A0F85210FEF79DFE70
:1038C00010BD70B5846B00252168606FA66F896894
:1038D000090606D5212804D1A4F85250204600F04C
:1038E00045F820688068400606D5222E04D1A4F849
:1038F0005A50204600F02AF8E06F40F01000E067D0
:103900002046FEF77AFE70BD10B5C169806BB1F537
:10391000807F13D00021A0F85A10202201680B6884
:1039200023F480730B6001688B6823F001038B60C4
:1039300001688B6823F040038B608267FFF744F8CF
:1039400010BD10B5806BFFF745F810BD10B50168CC
:10395000202200230C6824F490740C6001688C68A9
:1039600024F001048C608267036610BD0168202288
:103970000B6823F0C0030B60426770472DE9F041EC
:1039800004468068DFF818C2864F2368D4E90452E1
:10399000E16928431E6800250A438349104306EA6B
:1039A0000C0606431E604FF400422068E668436838
:1039B00023F44053334343602368A669206AD3F855
:1039C00008C030432CF4306606439E602068B8423D
:1039D0000AD1086810F0030052D001287BD00228D9
:1039E0007AD003286ED186E0704B98420AD10868DD
:1039F00010F00C0079D004287BD0082877D00C2850
:103A000060D178E06A4B98420AD1086810F0300023
:103A10006BD010286DD0202869D0302852D16AE0B0
:103A2000644B98420AD1086810F0C0005DD040286D
:103A30005FD080285BD0C02844D15CE05E4B9842C8
:103A40000DD1086810F440704FD0B0F5807F50D091
:103A5000B0F5007F4BD0B0F5407F33D14BE0574BF2
:103A600098420FD1086810F4406009D0B0F5806F1B
:103A70003FD0B0F5006F3AD0B0F5406F22D13AE0B8
:103A8000012120E04E4B98420DD1086810F44050BF
:103A90002BD0B0F5805F2CD0B0F5005F27D0B0F50B
:103AA000405F0FD127E0474B98420BD1086810F4D4
:103AB00040401AD0B0F5804F1BD0904217D0B0F5DF
:103AC000404F18D01021E0694FF6EF76904238D180
:103AD00009295DD202E00CE009E006E0DFE801F030
:103AE0000D1027582A5858582D000021EBE70221C5
:103AF000E9E70421E7E70821E5E7FEF737F801E009
:103B0000FEF744F80146D4F80400490001EB5001E7
:103B1000B1FBF0F080B2A0F11001B14238D84FF6FD
:103B2000F0732168C0F342021840104324E0264994
:103B30006068EBE7FEF73AF8E4E760684FF480313D
:103B4000E4E7092924D2DFE801F0050819231C2342
:103B500023231F00FEF70AF801E0FEF717F80146DD
:103B6000D4F8040001EB5001B1FBF0F080B2A0F1F9
:103B70001001B1420CD82168C8600AE0134960689E
:103B8000F0E7FEF713F8EAE7606802EB5001EBE7B5
:103B900001250020206660662846BDE8F08100000F
:103BA000F369FFEF001001409038024000440040EC
:103BB00000480040004C004000500040001401400C
:103BC00000780040007C00400048E8010024F40038
:103BD0002DE9F041984617460E460446069D08E03A
:103BE000681C06D0FDF7D6F9A0EB0800A8420BD858
:103BF00055B12068C06936EA000017D00020B842ED
:103C0000EED00020BDE8F0812168202000220B6862
:103C100023F4D0730B6021688B6823F001038B6061
:103C20006067A067032084F87020EBE70120E6E7D7
:103C30000148FEF7E3BC00000C0200200148FEF73B
:103C4000DDBC00008C020020FEE700000FB4084B32
:103C500010B504A902AA039800F0EEF8044602A9E0
:103C6000002000F080FC204610BC5DF814FB000032
:103C700067450008090700284FEA116104DB00F1DD
:103C8000E02080F80014704700F00F0000F1E02001
:103C900080F8141D704702E008C8121F08C1002AEE
:103CA000FAD170477047002001E001C1121F002ABD
:103CB000FBD170472DE9FF5F82B00021DDE90430C0
:103CC000020DDDF840B0034318D044F61050A2F2C4
:103CD000FF3242431514119801281FD0A5EB0B00A9
:103CE000401C5FEA000A4FF000064E4FDFF83891A3
:103CF000B046504615D5CAF1000413E011980124CE
:103D00004AA3012801D16FEA0B010298119AC0E978
:103D10000031C0E9024206B0BDE8F09FCBF10000DF
:103D2000DFE704460021404A491842EB0450CDE940
:103D3000001012E0E00707D032463B4640464946B5
:103D4000FCF761FB8046894632463B4610461946E1
:103D5000FCF759FB06460F466410002CEAD1DDE95A
:103D60000401DDE90023BAF1000F06DAFCF74BFB92
:103D700042464B46FCF747FB05E0FCF7C0FC4246D9
:103D80004B46FCF7BCFC04460E460022284BFCF7D1
:103D90003DFD03D84FF0FF30014607E00022254BE0
:103DA00020463146FCF788FAFCF718FD102409E09C
:103DB000002C0ADB0A220023FCF722FA039B303294
:103DC0001A55641E50EA0102F2D1641C039AC4F130
:103DD00011031444119A012A03D0012208430DD182
:103DE0000AE0084304D000204FF0110B119072E755
:103DF000A3EB0B056D1E0DE05B4504DD4FF00002EB
:103E000005F1010504E003DA4FF00002A5F1010518
:103E1000002AECD002981199C0E90231C0E90045AE
:103E200079E70000000014400000F03F300000007F
:103E30000000F0430000E03F2DE9FF4F95B09B46A6
:103E40008946064600250FE2252877D1002427461B
:103E5000F84A0121059400E0044316F8013F203B95
:103E600001FA03F01042F7D130782A2811D06FF010
:103E70002F033078A0F13002092A16D8059A44F0B1
:103E8000020402EB820203EB42021044761C05900E
:103E9000EFE759F8042B0592002A03DA504244F464
:103EA0000054059044F00204761C30782E2816D178
:103EB00016F8010F44F004042A280DD06FF02F02E9
:103EC0003078A0F13003092B09D807EB870302EB08
:103ED0004303C718761CF3E759F8047B761C307847
:103EE0006C280FD006DC4C2817D068280DD06A2823
:103EF00014D104E0742810D07A280FD10DE044F4D6
:103F000000140AE044F4801401E044F44014727890
:103F1000824202D104F58014761C761C3078662823
:103F20000BD013DC582877D009DC002875D0452841
:103F3000F6D04628F4D047281AD19DE118E063282E
:103F400035D0642879D0652812D195E1702873D0D6
:103F500008DC6728F1D069286FD06E280DD06F2853
:103F600006D1B5E073282CD0752875D0782874D088
:103F70005A46179990476D1C75E1C4F30250022808
:103F800009D003280DD0D9F8001004280DD00D60F9
:103F900009F1040967E1D9F80010EA17C1E90052F4
:103FA000F6E7D9F800100D80F2E70D70F0E719F888
:103FB000041B8DF8001000208DF80100EA46012056
:103FC00003E059F804AB4FF0FF3061074FF00001F8
:103FD00002D40DE008F101018846B9420FDA8045AC
:103FE000F8DB1AF808100029F4D108E008F1010103
:103FF00088468142FADB1AF808100029F6D10598A4
:104000005B46A0EB080721463846179A00F094FA61
:10401000284400EB080507E04DE029E10DE01AF81F
:10402000010B5A4617999047B8F10108F7D25B4641
:1040300021463846179A13E142E00A220092C4F35F
:1040400002524FF0000A022A08D059F804CB032A82
:104050004FEAEC710AD00DE029E02AE009F10701EE
:1040600021F00702F2E802C1914609E00FFA8CFC48
:104070004FEAEC71042A03D14FFA8CFC4FEAEC7141
:10408000002907DA0A460021DCF1000C61EB02018D
:104090002D2202E0220504D52B228DF804200122D6
:1040A00003E0E20701D02022F7E7904659E00A2119
:1040B00002E010220DE010214FF0000A00910BE009
:1040C00010224FF0000A44F004040827009203E095
:1040D00008224FF0000A0092C4F30252022A05D0CF
:1040E00059F804CB0021032A08D009E009F107019F
:1040F00021F00702F2E802C1914605E01FFA8CFCAC
:10410000042A01D10CF0FF0C4FF00008220728D53B
:10411000702806D0009B83F0100353EA0A0305D0F1
:104120000EE040228DF80420012208E05CEA010242
:1041300006D030228DF804208DF80500022290462A
:10414000009B83F0080353EA0A030AD15CEA0102E8
:1041500001D1620705D530228DF804204FF0010807
:104160007F1E582804D034A003900EA802900DE0C2
:1041700036A0F9E753466046009AFCF741F88446BA
:104180000398825C0298401E029002705CEA010073
:10419000F0D1029806A9081A00F1200A600702D59A
:1041A00024F4803400E00127574502DDA7EB0A0024
:1041B00000E0002000EB0A01009005984144401AFD
:1041C0000590E00306D45B462146179A059800F057
:1041D000B3F90544002706E001A85A46C05D1799C7
:1041E00090476D1C7F1C4745F6DBE0030CD55B4612
:1041F0002146179A059800F09FF9054404E0302005
:104200005A46179990476D1C0099481E0090002946
:10421000F5DC08E0029802995A460078491C0291A0
:10422000179990476D1CBAF10001AAF1010AF1DC5F
:1042300065E100000928010030313233343536376A
:1042400038396162636465660000000030313233E2
:104250003435363738394142434445460000000082
:1042600000F058F90544761C307800287FF4ECAD56
:1042700019B02846BDE8F08F620700D4062709F17F
:10428000070222F0070CFCE80223E14603F0004895
:104290005FEA080C02D00FF2702C0DE05FEA045CBC
:1042A00002D50FF2682C07E05FEAC47C02D00FF25F
:1042B000602C01E0AFF2700C4FF0FF3823F00043A8
:1042C000CDF850C065280CD006DC452809D046281A
:1042D0001DD047283DD13DE0662818D067287ED103
:1042E00038E00021112F01DB112000E0781CCDE91E
:1042F000000106A90EA8FFF7DDFCDDE90F010E9A0B
:1043000003910021009207F1010A04914DE04FF062
:1043100000400097CDE9011006A90EA8FFF7CAFCDE
:10432000DDE90F0203920E9B11990022DDF80CA02B
:104330000093049211B9791C00EB010AB7EB0A0053
:1043400004D4C0F1FF3007F1010A0490AAEB070082
:10435000019044E0012F00DA01270021112F01DD37
:10436000112000E03846CDE9000106A90EA8FFF7AC
:10437000A1FCDDE90F010E9A039100210491009246
:10438000BA4621070CD40399514500DA8A46BAF19E
:10439000010F05DD009AAAF10101515C302908D016
:1043A000B84202DA10F1040F06DA0121CDE901105A
:1043B00015E0AAF10101E9E7002805DC04990144B0
:1043C0000491AAEB000102E0411C514500DD8A4640
:1043D0000499401A401C01904FF0004002902007C1
:1043E00004D40198504501DBCDF8048000208DF8FD
:1043F0004F0002980DF14F07B0F1004F25D02B2050
:104400000E9002984FF0020800280CDA4042029009
:104410002D200E9007E00A210298FCF795F8303124
:10442000029007F8011DB8F10001A8F10108F2DCC3
:1044300002980028EFD1791E0E980870307800F0AD
:10444000200040F0450007F8020D12A8C01B00F143
:1044500007081498007800B1012000EB0A010198C8
:1044600001EBE07105984144401A401E0590E003BD
:1044700006D45B462146179A059800F05DF805447E
:104480001498007818B15A46179990476D1CE003AC
:1044900024D55B462146179A059800F04DF805444F
:1044A0001CE00498002807DBDDE90301884203DDF6
:1044B0000098405C179901E0179930205A469047C0
:1044C000049805F10105401C04900198401E0190DC
:1044D00004D12E205A46179990476D1CBAF100015D
:1044E000AAF1010ADDDC05E017F8010B5A4617991D
:1044F00090476D1CB8F10001A8F10108F4DC5B469F
:104500002146179A0598ABE62D0000002B0000000D
:10451000200000002DE9F041044600251E46174604
:10452000880404D405E039462020B0476D1C641E81
:10453000F9D52846BDE8F0812DE9F0410446002573
:104540001E469046C80301D5302700E02027880486
:1045500004D505E041463846B0476D1C641EF9D5C8
:104560002846BDE8F0810A68531C0B601070704744
:104570002DED068B86B0FCF723FFFEF7B5FEFEF7A8
:104580001BFDFE48016841F4001101600068002233
:10459000114600F4001000900C20FCF763FF0C2083
:1045A000FCF752FF00220E201146FCF75BFF0E20A5
:1045B000FCF74AFF002210201146FCF753FF1020A1
:1045C000FCF742FF002211201146FCF74BFF11209F
:1045D000FCF73AFFFEF752FEFEF7E6FDFEF786FD1A
:1045E000FEF70AFEFEF760FDFEF760FEE4490122D9
:1045F000A1F58070FEF79AF9E1490122A1F180004E
:10460000FEF794F9DF48FDF789FDDE4800214038C8
:10461000FDF7C0FFDB4804214038FDF7BBFFD94858
:1046200008214030FDF7B6FFD6480C214030FDF799
:10463000B1FFDFF854B34FF00009D4484C460BF1FA
:104640000402CBF80090C2F80090C0F83490C0F893
:104650003890CC488C38FEF7A3FC8DF8124001202E
:104660008DF810408DF8130004A88DF811408DF8D6
:104670001440FEF765FB9FEDC60ADFF804A30AF1BC
:104680000C0A8AED020AC34CD4E902018842FAD02E
:10469000C14D4FF480412846FCF76FFC1426666636
:1046A000206890FBF6F000EE100AB8EEC00A84ED28
:1046B000110A9FEDBAAAF0EE00AA20EE0A0A20EE37
:1046C0002A0A10EE100AFBF710FF9FEDB59B53EC82
:1046D000192BFBF798FEFBF71BFF00EE100ADFED2E
:1046E000B28A80EE288A84ED128A606890FBF6F028
:1046F00000EE100AB8EEC00A84ED130A20EE0A0A92
:1047000020EE2A0A10EE100AFBF7EFFE53EC192BED
:10471000FBF779FEFBF7FCFE00EE100AB3EE041A7D
:10472000B6EE002AC0EE281A4FF6FF70C4ED141A38
:1047300094ED090A30EE480A84ED150AD4ED053AE5
:1047400094ED103AD4ED060A70EE633A94ED0F4AF8
:1047500070EE804AD4ED0E2A23EE833A24EE204AEE
:1047600062EE802AC3EE010A44EE012A70EEA20A2C
:10477000FDEEE00A10EE901AE16584ED050AC4ED45
:10478000064A94ED0A0A814230EE610A84ED160A67
:10479000D4ED0B0A94ED0C3AD4ED081AD4ED073A97
:1047A00060EE800A23EE213A70EE633AD4ED0D2AD2
:1047B00071EE801A43EE010A23EEA21A41EE020ABC
:1047C000FDEEE00A10EE902A226684ED070AC4EDA1
:1047D000081A01DBE06503E0744B994200DCE365F5
:1047E000824202DA7148824200DC2066E06D0028D5
:1047F0000BDDCBF800004FF000026D4E4FF0800152
:104800003046FCF7C1FB01220DE010DAC0F10000D8
:10481000CBF80000664E4FF001024FF080013046A9
:10482000FCF7B2FB002230464021FCF7ADFB206EC6
:1048300000280ADD5F4908604FF000024FF02001B8
:104840002846FCF7A1FB01220CE00FDAC0F10001C1
:10485000584801604FF001024FF020012846FCF754
:1048600093FB002252481021FCF78EFBA1684448BC
:10487000C4F80090C4F804901C30E160FEF7CAFA56
:104880003F483430FEF762FB3D4C28342068FBF78C
:104890002CFE9FED498B53EC182BFBF7B4FDA4F1D4
:1048A0000C0741EC1A0B3868FBF71FFE9FED449B89
:1048B00053EC192BFBF7A7FD53EC1A2BFBF7FCFC71
:1048C000FBF726FE206005466068FBF70EFE53EC02
:1048D000182BFBF798FD41EC1A0B7868FBF705FEE7
:1048E00053EC192BFBF78FFD53EC1A2BFBF7E4FC71
:1048F000FBF70EFE60600646A068FBF7F6FD53EC82
:10490000182BFBF780FD41EC1A0BB868FBF7EDFDA7
:1049100053EC192BFBF777FD53EC1A2BFBF7CCFC70
:10492000FBF7F6FDA06018342068FBF7DEFD53ECC2
:10493000182BFBF768FD183741EC1A0B3868FBF7AA
:10494000D4FD53EC192BFBF75EFD53EC1A2BFBF750
:10495000B3FCFBF7DDFD20606068FBF7C6FD53ECA0
:10496000182BFBF750FD41EC1A0B7868FBF7BDFDE7
:1049700053EC192BFBF747FD26E0000030380240CE
:104980000C0300208C0100203C0800400000014086
:10499000000000001C0000200004024000007A44D7
:1049A000182D4454FB210940007060450100FFFFB1
:1049B0000000024040080040989999999999C93F90
:1049C0009A9999999999E93F53EC1A2BFBF774FC42
:1049D000FBF79EFD6060A068FBF787FD53EC182B8A
:1049E000FBF711FD41EC180BB868FBF77EFD53ECAB
:1049F000192BFBF708FD53EC182BFBF75DFCFBF7BD
:104A000087FDA060FBF771FD9FED171B53EC112B89
:104A1000FBF7F9FC41EC180BDAF808005446FBF7F9
:104A200064FD53EC182BFBF747FCFBF771FD804648
:104A3000A0603046FBF759FD0F4606462846FBF7B7
:104A400054FD0D4604464046FBF74FFD41EC100B6C
:104A50008DE8F0000E4806A153EC102BFFF7F6F896
:104A60000B4800F017F80EE67B14AE47E17A943F4E
:104A7000616E67756C6F3A202566206163635F78AD
:104A80003A202566206163635F793A2025660A0033
:104A9000E000002010B50446FBF707FC2146BDE806
:104AA000104082B201486423FDF795BF8C020020BC
:104AB000000610160006101600000000000000009E
:104AC00001020304060708090000000001020304B4
:104AD000F04A00080000002094000000963C000806
:104AE000844B00089400002044080000A63C000805
:104AF00000000000000000000000000000000000B6
:104B000000000000000000000000000000000000A5
:104B10000000000000000000000000000000000095
:104B20000000000000000000000000000000000085
:104B30000000A0C0CDCCCC3F00803B4500007042BF
:104B40000000964300803B45000070420000964301
:104B50000000000000000000000000000000000055
:104B60000000000000000000000000000000000045
:104B70000000000001000000100000000000000024
:044B80000024F40019
:04000005080001C925
:00000001FF
